{
  "contractName": "Roulette",
  "abi": [
    {
      "inputs": [],
      "stateMutability": "nonpayable",
      "type": "constructor"
    },
    {
      "anonymous": false,
      "inputs": [
        {
          "indexed": true,
          "internalType": "address",
          "name": "previousOwner",
          "type": "address"
        },
        {
          "indexed": true,
          "internalType": "address",
          "name": "newOwner",
          "type": "address"
        }
      ],
      "name": "OwnershipTransferred",
      "type": "event"
    },
    {
      "inputs": [],
      "name": "MAX_BET",
      "outputs": [
        {
          "internalType": "uint256",
          "name": "",
          "type": "uint256"
        }
      ],
      "stateMutability": "view",
      "type": "function",
      "constant": true
    },
    {
      "inputs": [],
      "name": "MAX_BET_RATIO",
      "outputs": [
        {
          "internalType": "uint256",
          "name": "",
          "type": "uint256"
        }
      ],
      "stateMutability": "view",
      "type": "function",
      "constant": true
    },
    {
      "inputs": [
        {
          "internalType": "bytes32",
          "name": "",
          "type": "bytes32"
        }
      ],
      "name": "bookOfBets",
      "outputs": [
        {
          "internalType": "uint256",
          "name": "betNum",
          "type": "uint256"
        },
        {
          "internalType": "uint256",
          "name": "betAmount",
          "type": "uint256"
        },
        {
          "internalType": "address payable",
          "name": "bettor",
          "type": "address"
        }
      ],
      "stateMutability": "view",
      "type": "function",
      "constant": true
    },
    {
      "inputs": [],
      "name": "owner",
      "outputs": [
        {
          "internalType": "address",
          "name": "",
          "type": "address"
        }
      ],
      "stateMutability": "view",
      "type": "function",
      "constant": true
    },
    {
      "inputs": [
        {
          "internalType": "bytes32",
          "name": "requestId",
          "type": "bytes32"
        },
        {
          "internalType": "uint256",
          "name": "randomness",
          "type": "uint256"
        }
      ],
      "name": "rawFulfillRandomness",
      "outputs": [],
      "stateMutability": "nonpayable",
      "type": "function"
    },
    {
      "inputs": [],
      "name": "renounceOwnership",
      "outputs": [],
      "stateMutability": "nonpayable",
      "type": "function"
    },
    {
      "inputs": [],
      "name": "spinResult",
      "outputs": [
        {
          "internalType": "uint256",
          "name": "",
          "type": "uint256"
        }
      ],
      "stateMutability": "view",
      "type": "function",
      "constant": true
    },
    {
      "inputs": [
        {
          "internalType": "address",
          "name": "newOwner",
          "type": "address"
        }
      ],
      "name": "transferOwnership",
      "outputs": [],
      "stateMutability": "nonpayable",
      "type": "function"
    },
    {
      "stateMutability": "payable",
      "type": "receive",
      "payable": true
    },
    {
      "inputs": [],
      "name": "getBalance",
      "outputs": [
        {
          "internalType": "uint256",
          "name": "",
          "type": "uint256"
        }
      ],
      "stateMutability": "view",
      "type": "function",
      "constant": true
    },
    {
      "inputs": [
        {
          "internalType": "uint256",
          "name": "amount",
          "type": "uint256"
        },
        {
          "internalType": "address payable",
          "name": "to",
          "type": "address"
        }
      ],
      "name": "withdrawBalance",
      "outputs": [],
      "stateMutability": "nonpayable",
      "type": "function"
    },
    {
      "inputs": [
        {
          "internalType": "uint256",
          "name": "betNum",
          "type": "uint256"
        }
      ],
      "name": "spinWheel",
      "outputs": [],
      "stateMutability": "payable",
      "type": "function",
      "payable": true
    }
  ],
  "bytecode": "0x60c06040526103e8600255670de0b6b3a764000060035534801561002257600080fd5b5073b3dccb4cf7a26f6cf6b120cf5a73875b7bbc655b7301be23585060835e02b77ef475b0cc51aa1e07098173ffffffffffffffffffffffffffffffffffffffff1660a08173ffffffffffffffffffffffffffffffffffffffff1660601b815250508073ffffffffffffffffffffffffffffffffffffffff1660808173ffffffffffffffffffffffffffffffffffffffff1660601b8152505050506100d96100ce61011760201b60201c565b61011f60201b60201c565b7f2ed0feb3e7fd2022120aa84fab1945545a9f2ffc9076fd6156fa96eaff4c131160001b60048190555067016345785d8a00006005819055506101e5565b600033905090565b6000600160009054906101000a900473ffffffffffffffffffffffffffffffffffffffff16905081600160006101000a81548173ffffffffffffffffffffffffffffffffffffffff021916908373ffffffffffffffffffffffffffffffffffffffff1602179055508173ffffffffffffffffffffffffffffffffffffffff168173ffffffffffffffffffffffffffffffffffffffff167f8be0079c531659141344cd1fd0a4f28419497f9722a3daafe3b4186f6b6457e060405160405180910390a35050565b60805160601c60a05160601c61169661021e600039600081816104010152610afa0152600081816109bf0152610abe01526116966000f3fe6080604052600436106100a05760003560e01c806394985ddd1161006457806394985ddd1461016d578063a0fb6c9614610196578063a2d7c106146101c1578063e0844270146101dd578063ebdf8ab514610208578063f2fde38b14610247576100a7565b806312065fe0146100ac578063715018a6146100d757806379e81f39146100ee5780637e95b523146101175780638da5cb5b14610142576100a7565b366100a757005b600080fd5b3480156100b857600080fd5b506100c1610270565b6040516100ce91906111c7565b60405180910390f35b3480156100e357600080fd5b506100ec610278565b005b3480156100fa57600080fd5b5061011560048036038101906101109190610e27565b610300565b005b34801561012357600080fd5b5061012c6103cf565b60405161013991906111c7565b60405180910390f35b34801561014e57600080fd5b506101576103d5565b6040516101649190611040565b60405180910390f35b34801561017957600080fd5b50610194600480360381019061018f9190610d8d565b6103ff565b005b3480156101a257600080fd5b506101ab61049b565b6040516101b891906111c7565b60405180910390f35b6101db60048036038101906101d69190610dcd565b6104a1565b005b3480156101e957600080fd5b506101f26105a4565b6040516101ff91906111c7565b60405180910390f35b34801561021457600080fd5b5061022f600480360381019061022a9190610d60565b6105aa565b60405161023e939291906111e2565b60405180910390f35b34801561025357600080fd5b5061026e60048036038101906102699190610d06565b6105f4565b005b600047905090565b6102806106ec565b73ffffffffffffffffffffffffffffffffffffffff1661029e6103d5565b73ffffffffffffffffffffffffffffffffffffffff16146102f4576040517f08c379a00000000000000000000000000000000000000000000000000000000081526004016102eb90611167565b60405180910390fd5b6102fe60006106f4565b565b6103086106ec565b73ffffffffffffffffffffffffffffffffffffffff166103266103d5565b73ffffffffffffffffffffffffffffffffffffffff161461037c576040517f08c379a000000000000000000000000000000000000000000000000000000000815260040161037390611167565b60405180910390fd5b8073ffffffffffffffffffffffffffffffffffffffff166108fc839081150290604051600060405180830381858888f193505050501580156103c2573d6000803e3d6000fd5b506103cb6107ba565b5050565b60035481565b6000600160009054906101000a900473ffffffffffffffffffffffffffffffffffffffff16905090565b7f000000000000000000000000000000000000000000000000000000000000000073ffffffffffffffffffffffffffffffffffffffff163373ffffffffffffffffffffffffffffffffffffffff161461048d576040517f08c379a0000000000000000000000000000000000000000000000000000000008152600401610484906111a7565b60405180910390fd5b61049782826107d0565b5050565b60025481565b6003543411156104e6576040517f08c379a00000000000000000000000000000000000000000000000000000000081526004016104dd90611187565b60405180910390fd5b600033905060006104f56109b8565b9050600060405180606001604052808581526020013481526020018473ffffffffffffffffffffffffffffffffffffffff1681525090508060066000848152602001908152602001600020600082015181600001556020820151816001015560408201518160020160006101000a81548173ffffffffffffffffffffffffffffffffffffffff021916908373ffffffffffffffffffffffffffffffffffffffff16021790555090505050505050565b60085481565b60066020528060005260406000206000915090508060000154908060010154908060020160009054906101000a900473ffffffffffffffffffffffffffffffffffffffff16905083565b6105fc6106ec565b73ffffffffffffffffffffffffffffffffffffffff1661061a6103d5565b73ffffffffffffffffffffffffffffffffffffffff1614610670576040517f08c379a000000000000000000000000000000000000000000000000000000000815260040161066790611167565b60405180910390fd5b600073ffffffffffffffffffffffffffffffffffffffff168173ffffffffffffffffffffffffffffffffffffffff1614156106e0576040517f08c379a00000000000000000000000000000000000000000000000000000000081526004016106d790611107565b60405180910390fd5b6106e9816106f4565b50565b600033905090565b6000600160009054906101000a900473ffffffffffffffffffffffffffffffffffffffff16905081600160006101000a81548173ffffffffffffffffffffffffffffffffffffffff021916908373ffffffffffffffffffffffffffffffffffffffff1602179055508173ffffffffffffffffffffffffffffffffffffffff168173ffffffffffffffffffffffffffffffffffffffff167f8be0079c531659141344cd1fd0a4f28419497f9722a3daafe3b4186f6b6457e060405160405180910390a35050565b600254476107c891906112a7565b600381905550565b8060078190555060006006600084815260200190815260200160002060405180606001604052908160008201548152602001600182015481526020016002820160009054906101000a900473ffffffffffffffffffffffffffffffffffffffff1673ffffffffffffffffffffffffffffffffffffffff1673ffffffffffffffffffffffffffffffffffffffff168152505090506000816000015190506000826040015190506000836020015190506000602160075461088f91906113dd565b9050806008819055508381141561095a5760008373ffffffffffffffffffffffffffffffffffffffff166020846108c691906112d8565b6040516108d29061102b565b60006040518083038185875af1925050503d806000811461090f576040519150601f19603f3d011682016040523d82523d6000602084013e610914565b606091505b5050905080610958576040517f08c379a000000000000000000000000000000000000000000000000000000000815260040161094f90611147565b60405180910390fd5b505b6109626107ba565b6006600088815260200190815260200160002060008082016000905560018201600090556002820160006101000a81549073ffffffffffffffffffffffffffffffffffffffff0219169055505050505050505050565b60006005547f000000000000000000000000000000000000000000000000000000000000000073ffffffffffffffffffffffffffffffffffffffff166370a08231306040518263ffffffff1660e01b8152600401610a169190611040565b60206040518083038186803b158015610a2e57600080fd5b505afa158015610a42573d6000803e3d6000fd5b505050506040513d601f19601f82011682018060405250810190610a669190610dfa565b1015610aa7576040517f08c379a0000000000000000000000000000000000000000000000000000000008152600401610a9e90611127565b60405180910390fd5b610ab5600454600554610aba565b905090565b60007f000000000000000000000000000000000000000000000000000000000000000073ffffffffffffffffffffffffffffffffffffffff16634000aea07f000000000000000000000000000000000000000000000000000000000000000084866000604051602001610b2e929190611099565b6040516020818303038152906040526040518463ffffffff1660e01b8152600401610b5b9392919061105b565b602060405180830381600087803b158015610b7557600080fd5b505af1158015610b89573d6000803e3d6000fd5b505050506040513d601f19601f82011682018060405250810190610bad9190610d33565b506000610bcf8460003060008089815260200190815260200160002054610c19565b9050600160008086815260200190815260200160002054610bf09190611251565b60008086815260200190815260200160002081905550610c108482610c55565b91505092915050565b600084848484604051602001610c3294939291906110c2565b6040516020818303038152906040528051906020012060001c9050949350505050565b60008282604051602001610c6a929190610fff565b60405160208183030381529060405280519060200120905092915050565b600081359050610c97816115ed565b92915050565b600081359050610cac81611604565b92915050565b600081519050610cc18161161b565b92915050565b600081359050610cd681611632565b92915050565b600081359050610ceb81611649565b92915050565b600081519050610d0081611649565b92915050565b600060208284031215610d1c57610d1b61146c565b5b6000610d2a84828501610c88565b91505092915050565b600060208284031215610d4957610d4861146c565b5b6000610d5784828501610cb2565b91505092915050565b600060208284031215610d7657610d7561146c565b5b6000610d8484828501610cc7565b91505092915050565b60008060408385031215610da457610da361146c565b5b6000610db285828601610cc7565b9250506020610dc385828601610cdc565b9150509250929050565b600060208284031215610de357610de261146c565b5b6000610df184828501610cdc565b91505092915050565b600060208284031215610e1057610e0f61146c565b5b6000610e1e84828501610cf1565b91505092915050565b60008060408385031215610e3e57610e3d61146c565b5b6000610e4c85828601610cdc565b9250506020610e5d85828601610c9d565b9150509250929050565b610e7081611344565b82525050565b610e7f81611332565b82525050565b610e8e81611362565b82525050565b610ea5610ea082611362565b6113c9565b82525050565b6000610eb682611219565b610ec08185611224565b9350610ed0818560208601611396565b610ed981611471565b840191505092915050565b6000610ef1602683611240565b9150610efc82611482565b604082019050919050565b6000610f14602b83611240565b9150610f1f826114d1565b604082019050919050565b6000610f37601783611240565b9150610f4282611520565b602082019050919050565b6000610f5a602083611240565b9150610f6582611549565b602082019050919050565b6000610f7d602a83611240565b9150610f8882611572565b604082019050919050565b6000610fa0601f83611240565b9150610fab826115c1565b602082019050919050565b6000610fc3600083611235565b9150610fce826115ea565b600082019050919050565b610fe28161138c565b82525050565b610ff9610ff48261138c565b6113d3565b82525050565b600061100b8285610e94565b60208201915061101b8284610fe8565b6020820191508190509392505050565b600061103682610fb6565b9150819050919050565b60006020820190506110556000830184610e76565b92915050565b60006060820190506110706000830186610e76565b61107d6020830185610fd9565b818103604083015261108f8184610eab565b9050949350505050565b60006040820190506110ae6000830185610e85565b6110bb6020830184610fd9565b9392505050565b60006080820190506110d76000830187610e85565b6110e46020830186610fd9565b6110f16040830185610e76565b6110fe6060830184610fd9565b95945050505050565b6000602082019050818103600083015261112081610ee4565b9050919050565b6000602082019050818103600083015261114081610f07565b9050919050565b6000602082019050818103600083015261116081610f2a565b9050919050565b6000602082019050818103600083015261118081610f4d565b9050919050565b600060208201905081810360008301526111a081610f70565b9050919050565b600060208201905081810360008301526111c081610f93565b9050919050565b60006020820190506111dc6000830184610fd9565b92915050565b60006060820190506111f76000830186610fd9565b6112046020830185610fd9565b6112116040830184610e67565b949350505050565b600081519050919050565b600082825260208201905092915050565b600081905092915050565b600082825260208201905092915050565b600061125c8261138c565b91506112678361138c565b9250827fffffffffffffffffffffffffffffffffffffffffffffffffffffffffffffffff0382111561129c5761129b61140e565b5b828201905092915050565b60006112b28261138c565b91506112bd8361138c565b9250826112cd576112cc61143d565b5b828204905092915050565b60006112e38261138c565b91506112ee8361138c565b9250817fffffffffffffffffffffffffffffffffffffffffffffffffffffffffffffffff04831182151516156113275761132661140e565b5b828202905092915050565b600061133d8261136c565b9050919050565b600061134f8261136c565b9050919050565b60008115159050919050565b6000819050919050565b600073ffffffffffffffffffffffffffffffffffffffff82169050919050565b6000819050919050565b60005b838110156113b4578082015181840152602081019050611399565b838111156113c3576000848401525b50505050565b6000819050919050565b6000819050919050565b60006113e88261138c565b91506113f38361138c565b9250826114035761140261143d565b5b828206905092915050565b7f4e487b7100000000000000000000000000000000000000000000000000000000600052601160045260246000fd5b7f4e487b7100000000000000000000000000000000000000000000000000000000600052601260045260246000fd5b600080fd5b6000601f19601f8301169050919050565b7f4f776e61626c653a206e6577206f776e657220697320746865207a65726f206160008201527f6464726573730000000000000000000000000000000000000000000000000000602082015250565b7f4e6f7420656e6f756768204c494e4b202d2066696c6c20636f6e74726163742060008201527f7769746820666175636574000000000000000000000000000000000000000000602082015250565b7f6661696c656420746f2073656e64206574686572203a28000000000000000000600082015250565b7f4f776e61626c653a2063616c6c6572206973206e6f7420746865206f776e6572600082015250565b7f526f756c657474653a20546869732062657420657863656564206d617820706f60008201527f737369626c652062657400000000000000000000000000000000000000000000602082015250565b7f4f6e6c7920565246436f6f7264696e61746f722063616e2066756c66696c6c00600082015250565b50565b6115f681611332565b811461160157600080fd5b50565b61160d81611344565b811461161857600080fd5b50565b61162481611356565b811461162f57600080fd5b50565b61163b81611362565b811461164657600080fd5b50565b6116528161138c565b811461165d57600080fd5b5056fea264697066735822122085d4a2a40f3a486ba3965880c1219d459998ba874fbf4866a73f81eca2bc4ec464736f6c63430008070033",
  "immutableReferences": {
    "73": [
      {
        "length": 32,
        "start": 2495
      },
      {
        "length": 32,
        "start": 2750
      }
    ],
    "75": [
      {
        "length": 32,
        "start": 1025
      },
      {
        "length": 32,
        "start": 2810
      }
    ]
  },
  "source": "// SPDX-License-Identifier: minutes\npragma solidity ^0.8.7;\n\nimport \"@chainlink/contracts/src/v0.8/VRFConsumerBase.sol\";\nimport \"@openzeppelin/contracts/access/Ownable.sol\";\n\ncontract Roulette is VRFConsumerBase, Ownable {\n    uint256 public MAX_BET_RATIO = 1000;\n    uint256 public MAX_BET = 1 * 10**18;\n\n    bytes32 internal keyHash;\n    uint256 internal fee;\n\n    struct Bet {\n        uint256 betNum;\n        uint256 betAmount;\n        address payable bettor;\n    }\n\n    mapping(bytes32 => Bet) public bookOfBets;\n\n    uint256 internal randomResult;\n    uint256 public spinResult;\n\n    /**\n     * Constructor inherits VRFConsumerBase\n     *\n     * Network: Rinkeby\n     * Chainlink VRF Coordinator address: 0xb3dCcb4Cf7a26f6cf6B120Cf5A73875B7BBc655B\n     * LINK token address:                0x01BE23585060835E02B77ef475b0Cc51aA1e0709\n     * Key Hash: 0x2ed0feb3e7fd2022120aa84fab1945545a9f2ffc9076fd6156fa96eaff4c1311\n     */\n    constructor()\n        VRFConsumerBase(\n            0xb3dCcb4Cf7a26f6cf6B120Cf5A73875B7BBc655B, // VRF Coordinator address\n            0x01BE23585060835E02B77ef475b0Cc51aA1e0709 // LINK Token address\n        )\n    {\n        keyHash = 0x2ed0feb3e7fd2022120aa84fab1945545a9f2ffc9076fd6156fa96eaff4c1311;\n        fee = 0.1 * 10**18; // 0.1 LINK\n    }\n\n    modifier checkMaxBet() {\n        require(\n            msg.value <= MAX_BET,\n            \"Roulette: This bet exceed max possible bet\"\n        );\n        _;\n    }\n\n    function modifyMaxBet() internal {\n        MAX_BET = address(this).balance / MAX_BET_RATIO;\n    }\n\n    receive() external payable {}\n\n    function getBalance() public view returns (uint256) {\n        return address(this).balance;\n    }\n\n    function withdrawBalance(uint256 amount, address payable to)\n        external\n        onlyOwner\n    {\n        to.transfer(amount);\n        modifyMaxBet();\n    }\n\n    function spinWheel(uint256 betNum) external payable checkMaxBet {\n        // Get address of sender\n        address payable bettor;\n        bettor = payable(msg.sender);\n\n        //Request randomness, get request id\n        bytes32 requestId = getRandomNumber();\n\n        //store request id and address\n        Bet memory curBet = Bet(betNum, msg.value, bettor);\n        bookOfBets[requestId] = curBet;\n    }\n\n    /**\n     * Requests randomness\n     */\n    function getRandomNumber() private returns (bytes32 requestId) {\n        require(\n            LINK.balanceOf(address(this)) >= fee,\n            \"Not enough LINK - fill contract with faucet\"\n        );\n        return requestRandomness(keyHash, fee);\n    }\n\n    /**\n     * Callback function used by VRF Coordinator\n     */\n    function fulfillRandomness(bytes32 requestId, uint256 randomness)\n        internal\n        override\n    {\n        randomResult = randomness;\n\n        //load bet from memory\n        Bet memory _curBet = bookOfBets[requestId];\n        uint256 _betNum = _curBet.betNum;\n        address payable _bettor = _curBet.bettor;\n        uint256 _amount = _curBet.betAmount;\n\n        //calculate spin result\n        uint256 _spinResult = randomResult % 33;\n\n        //display spin result to public (only works if low volume)\n        spinResult = _spinResult;\n\n        //pay if they are a winner\n        if (_spinResult == _betNum) {\n            (bool sent, ) = _bettor.call{value: _amount * 32}(\"\");\n            require(sent, \"failed to send ether :(\");\n        }\n        modifyMaxBet();\n\n        //delete bet from memory\n\n        delete bookOfBets[requestId];\n    }\n}\n",
  "sourcePath": "/Users/niccolofant/dev/Solidity/chainlink-roulette/contracts/Roulette.sol",
  "compiler": {
    "name": "solc",
    "version": "0.8.7+commit.e28d00a7.Emscripten.clang"
  },
  "schemaVersion": "3.4.3",
  "updatedAt": "2021-11-09T16:27:13.719Z",
  "networkType": "ethereum",
  "devdoc": {
    "kind": "dev",
    "methods": {
      "owner()": {
        "details": "Returns the address of the current owner."
      },
      "renounceOwnership()": {
        "details": "Leaves the contract without owner. It will not be possible to call `onlyOwner` functions anymore. Can only be called by the current owner. NOTE: Renouncing ownership will leave the contract without an owner, thereby removing any functionality that is only available to the owner."
      },
      "transferOwnership(address)": {
        "details": "Transfers ownership of the contract to a new account (`newOwner`). Can only be called by the current owner."
      }
    },
    "version": 1
  },
  "userdoc": {
    "kind": "user",
    "methods": {
      "constructor": {
        "notice": "Constructor inherits VRFConsumerBase Network: Rinkeby Chainlink VRF Coordinator address: 0xb3dCcb4Cf7a26f6cf6B120Cf5A73875B7BBc655B LINK token address:                0x01BE23585060835E02B77ef475b0Cc51aA1e0709 Key Hash: 0x2ed0feb3e7fd2022120aa84fab1945545a9f2ffc9076fd6156fa96eaff4c1311"
      }
    },
    "version": 1
  }
}